:020000009D2839
:10000800FF00030E8301A9000A08A8008A017008EE
:10001800A3007108A2007C08A1007D08A0008B1C29
:1000280028284E30FC00EB30FD00FD0B1928FC0B96
:1000380019288B102408003A031D25280130F100E7
:100048002628F1017108A4002308F0002208F10015
:100058002108FC002008FD0028088A00290E8300DA
:06006800FF0E7F0E0900EF
:10006E0083120313F8010830FC00700DF80D7408AC
:10007E00F80203184428F8070310F00DFC0B3C2877
:02008E00080068
:0E0090008312031326088A0025088200080048
:10009E0003308316031386008701880183128701BC
:0800AE00880106158615080003
:1000B60048208A110A128000840AA50A0319A60A92
:0800C600F003031D5B28080094
:1000CE000A3083120313F4002E08F0003720700854
:1000DE00AF000A30F4002E08F00037207808F00048
:1000EE007008B0002E08003A031D802806118611F4
:1000FE008228061586150F303005F3000F302F05B8
:10010E00F2007208F000F00D7010F00D7010F00D8E
:0E011E007010F00D7010700873048700080058
:0E012C008B170B168B10831603130117080098
:10013A0083120313A4014F20962083122408031D5F
:10014A00192908140F30A7002708003C0318DD28D6
:10015A002408031DDD282708033C0318B7280130AB
:10016A00AA00B828AA012A18BC288812BD2888160D
:10017A002708033C031CC4280130AB00C528AB0187
:10018A002B18C9280812CA2808162708AE006720A3
:10019A000B30FB002630FC005D30FD00FD0BD32840
:1001AA00FC0BD328FB0BD32800000000A703A928C7
:1001BA000810081288151730A7002708003C0318F2
:1001CA0016292408031D16292708033C0318F028BA
:1001DA000130AC00F128AC012C18F5280811F628DA
:1001EA0008152708033C031CFD280130AD00FE2832
:1001FA00AD012D1802298810032988142708AE009A
:10020A0067200B30FB002630FC005D30FD00FD0B43
:10021A000C29FC0B0C29FB0B0C2900000000A7037E
:10022A00E228881188108829081C52290330A7005F
:10023A002708003C03183929240803193929081604
:10024A0088122708AE0067200B30FB002630FC001E
:10025A005D30FD00FD0B2F29FC0B2F29FB0B2F29ED
:10026A0000000000A7031D29240803195129861C30
:10027A005129081088100815881508128812AE012D
:10028A0067208230FC00DD30FD00FD0B4A29FC0BA3
:10029A004A2900000000392988290330A7002708C5
:1002AA00003C0318702924080319702988140811BE
:1002BA002708AE0067200B30FB002630FC005D30BB
:1002CA00FD00FD0B6629FC0B6629FB0B6629000065
:1002DA000000A7035429240803198829861C8829A1
:1002EA00081488100811881108128816AE016720B0
:1002FA008230FC00DD30FD00FD0B8129FC0B8129D9
:0A030A00000000007029A2288929D4
:02400E004A2F37
:00000001FF
